{
  "address": "0x9fa9304625FcD9C9cdce7561B4BAf204B62cC438",
  "abi": [
    {
      "anonymous": false,
      "inputs": [
        {
          "indexed": true,
          "internalType": "address",
          "name": "owner",
          "type": "address"
        },
        {
          "indexed": true,
          "internalType": "address",
          "name": "approved",
          "type": "address"
        },
        {
          "indexed": true,
          "internalType": "uint256",
          "name": "tokenId",
          "type": "uint256"
        }
      ],
      "name": "Approval",
      "type": "event"
    },
    {
      "anonymous": false,
      "inputs": [
        {
          "indexed": true,
          "internalType": "address",
          "name": "owner",
          "type": "address"
        },
        {
          "indexed": true,
          "internalType": "address",
          "name": "operator",
          "type": "address"
        },
        {
          "indexed": false,
          "internalType": "bool",
          "name": "approved",
          "type": "bool"
        }
      ],
      "name": "ApprovalForAll",
      "type": "event"
    },
    {
      "anonymous": false,
      "inputs": [
        {
          "indexed": false,
          "internalType": "uint8",
          "name": "version",
          "type": "uint8"
        }
      ],
      "name": "Initialized",
      "type": "event"
    },
    {
      "anonymous": false,
      "inputs": [
        {
          "indexed": true,
          "internalType": "address",
          "name": "previousOwner",
          "type": "address"
        },
        {
          "indexed": true,
          "internalType": "address",
          "name": "newOwner",
          "type": "address"
        }
      ],
      "name": "OwnershipTransferred",
      "type": "event"
    },
    {
      "anonymous": false,
      "inputs": [
        {
          "indexed": false,
          "internalType": "address",
          "name": "newSigner",
          "type": "address"
        }
      ],
      "name": "SignerAdded",
      "type": "event"
    },
    {
      "anonymous": false,
      "inputs": [
        {
          "indexed": false,
          "internalType": "address",
          "name": "oldSigner",
          "type": "address"
        }
      ],
      "name": "SignerRemoved",
      "type": "event"
    },
    {
      "anonymous": false,
      "inputs": [
        {
          "indexed": true,
          "internalType": "address",
          "name": "from",
          "type": "address"
        },
        {
          "indexed": true,
          "internalType": "address",
          "name": "to",
          "type": "address"
        },
        {
          "indexed": true,
          "internalType": "uint256",
          "name": "tokenId",
          "type": "uint256"
        }
      ],
      "name": "Transfer",
      "type": "event"
    },
    {
      "inputs": [],
      "name": "EIP712_DOMAIN_TYPEHASH",
      "outputs": [
        {
          "internalType": "bytes32",
          "name": "",
          "type": "bytes32"
        }
      ],
      "stateMutability": "view",
      "type": "function"
    },
    {
      "inputs": [],
      "name": "HASHED_NAME",
      "outputs": [
        {
          "internalType": "bytes32",
          "name": "",
          "type": "bytes32"
        }
      ],
      "stateMutability": "view",
      "type": "function"
    },
    {
      "inputs": [],
      "name": "HASHED_VERSION",
      "outputs": [
        {
          "internalType": "bytes32",
          "name": "",
          "type": "bytes32"
        }
      ],
      "stateMutability": "view",
      "type": "function"
    },
    {
      "inputs": [],
      "name": "MINT_REQUEST_TYPEHASH",
      "outputs": [
        {
          "internalType": "bytes32",
          "name": "",
          "type": "bytes32"
        }
      ],
      "stateMutability": "view",
      "type": "function"
    },
    {
      "inputs": [
        {
          "internalType": "address",
          "name": "_user",
          "type": "address"
        },
        {
          "internalType": "uint256",
          "name": "_id",
          "type": "uint256"
        },
        {
          "internalType": "uint256",
          "name": "_validUntil",
          "type": "uint256"
        },
        {
          "internalType": "bytes",
          "name": "_signature",
          "type": "bytes"
        }
      ],
      "name": "_checkEIP712Signature",
      "outputs": [],
      "stateMutability": "view",
      "type": "function"
    },
    {
      "inputs": [
        {
          "internalType": "address",
          "name": "_signer",
          "type": "address"
        }
      ],
      "name": "addSigner",
      "outputs": [],
      "stateMutability": "nonpayable",
      "type": "function"
    },
    {
      "inputs": [
        {
          "internalType": "address",
          "name": "_spender",
          "type": "address"
        },
        {
          "internalType": "uint256",
          "name": "_tokenId",
          "type": "uint256"
        }
      ],
      "name": "approve",
      "outputs": [],
      "stateMutability": "nonpayable",
      "type": "function"
    },
    {
      "inputs": [
        {
          "internalType": "address",
          "name": "",
          "type": "address"
        }
      ],
      "name": "balanceOf",
      "outputs": [
        {
          "internalType": "uint256",
          "name": "",
          "type": "uint256"
        }
      ],
      "stateMutability": "view",
      "type": "function"
    },
    {
      "inputs": [],
      "name": "baseURI",
      "outputs": [
        {
          "internalType": "string",
          "name": "",
          "type": "string"
        }
      ],
      "stateMutability": "view",
      "type": "function"
    },
    {
      "inputs": [
        {
          "internalType": "uint256[]",
          "name": "itemIds",
          "type": "uint256[]"
        }
      ],
      "name": "batchItemIdToTokenId",
      "outputs": [
        {
          "internalType": "uint256[]",
          "name": "tokenIds",
          "type": "uint256[]"
        }
      ],
      "stateMutability": "view",
      "type": "function"
    },
    {
      "inputs": [
        {
          "internalType": "address",
          "name": "user",
          "type": "address"
        },
        {
          "internalType": "uint256[]",
          "name": "itemIds",
          "type": "uint256[]"
        },
        {
          "internalType": "uint256",
          "name": "validUntil",
          "type": "uint256"
        },
        {
          "internalType": "bytes[]",
          "name": "signatures",
          "type": "bytes[]"
        }
      ],
      "name": "batchMint",
      "outputs": [],
      "stateMutability": "nonpayable",
      "type": "function"
    },
    {
      "inputs": [
        {
          "internalType": "uint256[]",
          "name": "tokenIds",
          "type": "uint256[]"
        }
      ],
      "name": "batchTokenIdToItemId",
      "outputs": [
        {
          "internalType": "uint256[]",
          "name": "itemIds",
          "type": "uint256[]"
        }
      ],
      "stateMutability": "view",
      "type": "function"
    },
    {
      "inputs": [
        {
          "internalType": "uint256",
          "name": "",
          "type": "uint256"
        }
      ],
      "name": "getApproved",
      "outputs": [
        {
          "internalType": "address",
          "name": "",
          "type": "address"
        }
      ],
      "stateMutability": "view",
      "type": "function"
    },
    {
      "inputs": [],
      "name": "getDomainSeparatorV4",
      "outputs": [
        {
          "internalType": "bytes32",
          "name": "domainSeparator",
          "type": "bytes32"
        }
      ],
      "stateMutability": "view",
      "type": "function"
    },
    {
      "inputs": [
        {
          "components": [
            {
              "internalType": "address",
              "name": "user",
              "type": "address"
            },
            {
              "internalType": "uint256",
              "name": "id",
              "type": "uint256"
            },
            {
              "internalType": "uint256",
              "name": "validUntil",
              "type": "uint256"
            }
          ],
          "internalType": "struct EIP712SigMint.MintRequest",
          "name": "_mintRequest",
          "type": "tuple"
        }
      ],
      "name": "getStructHash",
      "outputs": [
        {
          "internalType": "bytes32",
          "name": "structHash",
          "type": "bytes32"
        }
      ],
      "stateMutability": "pure",
      "type": "function"
    },
    {
      "inputs": [
        {
          "internalType": "string",
          "name": "_name",
          "type": "string"
        },
        {
          "internalType": "string",
          "name": "_symbol",
          "type": "string"
        }
      ],
      "name": "initialize",
      "outputs": [],
      "stateMutability": "nonpayable",
      "type": "function"
    },
    {
      "inputs": [
        {
          "internalType": "string",
          "name": "_name",
          "type": "string"
        },
        {
          "internalType": "string",
          "name": "_symbol",
          "type": "string"
        }
      ],
      "name": "intialize",
      "outputs": [],
      "stateMutability": "nonpayable",
      "type": "function"
    },
    {
      "inputs": [
        {
          "internalType": "address",
          "name": "",
          "type": "address"
        },
        {
          "internalType": "address",
          "name": "",
          "type": "address"
        }
      ],
      "name": "isApprovedForAll",
      "outputs": [
        {
          "internalType": "bool",
          "name": "",
          "type": "bool"
        }
      ],
      "stateMutability": "view",
      "type": "function"
    },
    {
      "inputs": [
        {
          "internalType": "address",
          "name": "",
          "type": "address"
        }
      ],
      "name": "isValidSigner",
      "outputs": [
        {
          "internalType": "bool",
          "name": "",
          "type": "bool"
        }
      ],
      "stateMutability": "view",
      "type": "function"
    },
    {
      "inputs": [
        {
          "internalType": "uint256",
          "name": "",
          "type": "uint256"
        }
      ],
      "name": "itemIdToTokenId",
      "outputs": [
        {
          "internalType": "uint256",
          "name": "",
          "type": "uint256"
        }
      ],
      "stateMutability": "view",
      "type": "function"
    },
    {
      "inputs": [
        {
          "internalType": "address",
          "name": "user",
          "type": "address"
        },
        {
          "internalType": "uint256",
          "name": "itemId",
          "type": "uint256"
        },
        {
          "internalType": "uint256",
          "name": "validUntil",
          "type": "uint256"
        },
        {
          "internalType": "bytes",
          "name": "signature",
          "type": "bytes"
        }
      ],
      "name": "mint",
      "outputs": [],
      "stateMutability": "nonpayable",
      "type": "function"
    },
    {
      "inputs": [],
      "name": "name",
      "outputs": [
        {
          "internalType": "string",
          "name": "",
          "type": "string"
        }
      ],
      "stateMutability": "view",
      "type": "function"
    },
    {
      "inputs": [],
      "name": "nextTokenId",
      "outputs": [
        {
          "internalType": "uint256",
          "name": "",
          "type": "uint256"
        }
      ],
      "stateMutability": "view",
      "type": "function"
    },
    {
      "inputs": [],
      "name": "owner",
      "outputs": [
        {
          "internalType": "address",
          "name": "",
          "type": "address"
        }
      ],
      "stateMutability": "view",
      "type": "function"
    },
    {
      "inputs": [
        {
          "internalType": "uint256",
          "name": "",
          "type": "uint256"
        }
      ],
      "name": "ownerOf",
      "outputs": [
        {
          "internalType": "address",
          "name": "",
          "type": "address"
        }
      ],
      "stateMutability": "view",
      "type": "function"
    },
    {
      "inputs": [
        {
          "internalType": "address",
          "name": "_signer",
          "type": "address"
        }
      ],
      "name": "removeSigner",
      "outputs": [],
      "stateMutability": "nonpayable",
      "type": "function"
    },
    {
      "inputs": [],
      "name": "renounceOwnership",
      "outputs": [],
      "stateMutability": "nonpayable",
      "type": "function"
    },
    {
      "inputs": [
        {
          "internalType": "address",
          "name": "from",
          "type": "address"
        },
        {
          "internalType": "address",
          "name": "to",
          "type": "address"
        },
        {
          "internalType": "uint256",
          "name": "id",
          "type": "uint256"
        }
      ],
      "name": "safeTransferFrom",
      "outputs": [],
      "stateMutability": "nonpayable",
      "type": "function"
    },
    {
      "inputs": [
        {
          "internalType": "address",
          "name": "from",
          "type": "address"
        },
        {
          "internalType": "address",
          "name": "to",
          "type": "address"
        },
        {
          "internalType": "uint256",
          "name": "id",
          "type": "uint256"
        },
        {
          "internalType": "bytes",
          "name": "data",
          "type": "bytes"
        }
      ],
      "name": "safeTransferFrom",
      "outputs": [],
      "stateMutability": "nonpayable",
      "type": "function"
    },
    {
      "inputs": [
        {
          "internalType": "address",
          "name": "_operator",
          "type": "address"
        },
        {
          "internalType": "bool",
          "name": "_approved",
          "type": "bool"
        }
      ],
      "name": "setApprovalForAll",
      "outputs": [],
      "stateMutability": "nonpayable",
      "type": "function"
    },
    {
      "inputs": [
        {
          "internalType": "string",
          "name": "_baseURI",
          "type": "string"
        }
      ],
      "name": "setBaseURI",
      "outputs": [],
      "stateMutability": "nonpayable",
      "type": "function"
    },
    {
      "inputs": [
        {
          "internalType": "bytes4",
          "name": "interfaceId",
          "type": "bytes4"
        }
      ],
      "name": "supportsInterface",
      "outputs": [
        {
          "internalType": "bool",
          "name": "",
          "type": "bool"
        }
      ],
      "stateMutability": "view",
      "type": "function"
    },
    {
      "inputs": [],
      "name": "symbol",
      "outputs": [
        {
          "internalType": "string",
          "name": "",
          "type": "string"
        }
      ],
      "stateMutability": "view",
      "type": "function"
    },
    {
      "inputs": [
        {
          "internalType": "uint256",
          "name": "index",
          "type": "uint256"
        }
      ],
      "name": "tokenByIndex",
      "outputs": [
        {
          "internalType": "uint256",
          "name": "",
          "type": "uint256"
        }
      ],
      "stateMutability": "view",
      "type": "function"
    },
    {
      "inputs": [
        {
          "internalType": "uint256",
          "name": "",
          "type": "uint256"
        }
      ],
      "name": "tokenIdToItemId",
      "outputs": [
        {
          "internalType": "uint256",
          "name": "",
          "type": "uint256"
        }
      ],
      "stateMutability": "view",
      "type": "function"
    },
    {
      "inputs": [
        {
          "internalType": "address",
          "name": "user",
          "type": "address"
        },
        {
          "internalType": "uint256",
          "name": "start_index",
          "type": "uint256"
        },
        {
          "internalType": "uint256",
          "name": "end_index",
          "type": "uint256"
        }
      ],
      "name": "tokenOfOwner",
      "outputs": [
        {
          "internalType": "uint256[]",
          "name": "tokenIds",
          "type": "uint256[]"
        }
      ],
      "stateMutability": "view",
      "type": "function"
    },
    {
      "inputs": [
        {
          "internalType": "address",
          "name": "owner",
          "type": "address"
        },
        {
          "internalType": "uint256",
          "name": "index",
          "type": "uint256"
        }
      ],
      "name": "tokenOfOwnerByIndex",
      "outputs": [
        {
          "internalType": "uint256",
          "name": "",
          "type": "uint256"
        }
      ],
      "stateMutability": "view",
      "type": "function"
    },
    {
      "inputs": [
        {
          "internalType": "uint256",
          "name": "tokenId",
          "type": "uint256"
        }
      ],
      "name": "tokenURI",
      "outputs": [
        {
          "internalType": "string",
          "name": "",
          "type": "string"
        }
      ],
      "stateMutability": "view",
      "type": "function"
    },
    {
      "inputs": [],
      "name": "totalSupply",
      "outputs": [
        {
          "internalType": "uint256",
          "name": "",
          "type": "uint256"
        }
      ],
      "stateMutability": "view",
      "type": "function"
    },
    {
      "inputs": [
        {
          "internalType": "address",
          "name": "from",
          "type": "address"
        },
        {
          "internalType": "address",
          "name": "to",
          "type": "address"
        },
        {
          "internalType": "uint256",
          "name": "id",
          "type": "uint256"
        }
      ],
      "name": "transferFrom",
      "outputs": [],
      "stateMutability": "nonpayable",
      "type": "function"
    },
    {
      "inputs": [
        {
          "internalType": "address",
          "name": "newOwner",
          "type": "address"
        }
      ],
      "name": "transferOwnership",
      "outputs": [],
      "stateMutability": "nonpayable",
      "type": "function"
    }
  ],
  "transactionHash": "0xb402add7ee78b6c4d572f99613b75d574352743292e76d28c8a274399bbfa1f5",
  "args": [],
  "numDeployments": 3,
  "solcInputHash": "7d74423d3b21a9ba716c61f98a3b4d84",
  "bytecode": "0x608060405234801561001057600080fd5b5061511f806100206000396000f3fe608060405234801561001057600080fd5b50600436106102535760003560e01c80636352211e11610146578063976cfaf5116100c3578063c87b56dd11610087578063c87b56dd14610720578063d5f5058214610750578063e985e9c514610780578063eb12d61e146107b0578063f105a5f1146107cc578063f2fde38b146107e857610253565b8063976cfaf51461066a578063a22cb4651461069a578063b88d4fde146106b6578063c6d62876146106d2578063c7977be71461070257610253565b8063715018a61161010a578063715018a6146105ea578063731133e9146105f457806375794a3c146106105780638da5cb5b1461062e57806395d89b411461064c57610253565b80636352211e1461051e578063644bb2f11461054e5780636a2141821461056c5780636c0360eb1461059c57806370a08231146105ba57610253565b80632f745c59116101d457806343e2714b1161019857806343e2714b1461047e5780634cd88b761461049a5780634f6ccce7146104b657806355f804b3146104e65780635aeb3d351461050257610253565b80632f745c59146103b457806334fe6a65146103e457806337f4be6b1461040257806342063d021461043257806342842e0e1461046257610253565b80630e316ab71161021b5780630e316ab7146103105780631248d0c91461032c57806313c65a6e1461035c57806318160ddd1461037a57806323b872dd1461039857610253565b806301ffc9a71461025857806306fdde0314610288578063081812fc146102a6578063095ea7b3146102d657806309b46861146102f2575b600080fd5b610272600480360381019061026d9190613401565b610804565b60405161027f9190613449565b60405180910390f35b61029061087e565b60405161029d91906134f4565b60405180910390f35b6102c060048036038101906102bb919061354c565b61090c565b6040516102cd91906135ba565b60405180910390f35b6102f060048036038101906102eb9190613601565b61093f565b005b6102fa610b28565b604051610307919061365a565b60405180910390f35b61032a60048036038101906103259190613675565b610b68565b005b6103466004803603810190610341919061354c565b610b7c565b60405161035391906136b1565b60405180910390f35b610364610b94565b604051610371919061365a565b60405180910390f35b610382610c62565b60405161038f91906136b1565b60405180910390f35b6103b260048036038101906103ad91906136cc565b610c6f565b005b6103ce60048036038101906103c99190613601565b611080565b6040516103db91906136b1565b60405180910390f35b6103ec61115c565b6040516103f9919061365a565b60405180910390f35b61041c6004803603810190610417919061354c565b61119c565b60405161042991906136b1565b60405180910390f35b61044c6004803603810190610447919061371f565b6111b4565b6040516104599190613830565b60405180910390f35b61047c600480360381019061047791906136cc565b61133d565b005b610498600480360381019061049391906138b7565b611475565b005b6104b460048036038101906104af9190613a6f565b611604565b005b6104d060048036038101906104cb919061354c565b611756565b6040516104dd91906136b1565b60405180910390f35b61050060048036038101906104fb9190613ae7565b6117c7565b005b61051c60048036038101906105179190613c49565b6117e2565b005b6105386004803603810190610533919061354c565b611899565b60405161054591906135ba565b60405180910390f35b6105566118cc565b604051610563919061365a565b60405180910390f35b61058660048036038101906105819190613d43565b6118f0565b6040516105939190613830565b60405180910390f35b6105a46119b4565b6040516105b191906134f4565b60405180910390f35b6105d460048036038101906105cf9190613675565b611a42565b6040516105e191906136b1565b60405180910390f35b6105f2611a5a565b005b61060e600480360381019061060991906138b7565b611a6e565b005b610618611b73565b60405161062591906136b1565b60405180910390f35b610636611b79565b60405161064391906135ba565b60405180910390f35b610654611ba3565b60405161066191906134f4565b60405180910390f35b610684600480360381019061067f9190613d43565b611c31565b6040516106919190613830565b60405180910390f35b6106b460048036038101906106af9190613dbc565b611cf5565b005b6106d060048036038101906106cb9190613dfc565b611df2565b005b6106ec60048036038101906106e79190613eed565b611f30565b6040516106f9919061365a565b60405180910390f35b61070a611f92565b604051610717919061365a565b60405180910390f35b61073a6004803603810190610735919061354c565b611fb6565b60405161074791906134f4565b60405180910390f35b61076a60048036038101906107659190613675565b612016565b6040516107779190613449565b60405180910390f35b61079a60048036038101906107959190613f1a565b612036565b6040516107a79190613449565b60405180910390f35b6107ca60048036038101906107c59190613675565b612065565b005b6107e660048036038101906107e19190613a6f565b612079565b005b61080260048036038101906107fd9190613675565b6121bb565b005b60007f780e9d63000000000000000000000000000000000000000000000000000000007bffffffffffffffffffffffffffffffffffffffffffffffffffffffff1916827bffffffffffffffffffffffffffffffffffffffffffffffffffffffff1916148061087757506108768261223e565b5b9050919050565b6001805461088b90613f89565b80601f01602080910402602001604051908101604052809291908181526020018280546108b790613f89565b80156109045780601f106108d957610100808354040283529160200191610904565b820191906000526020600020905b8154815290600101906020018083116108e757829003601f168201915b505050505081565b60056020528060005260406000206000915054906101000a900473ffffffffffffffffffffffffffffffffffffffff1681565b60006003600083815260200190815260200160002060009054906101000a900473ffffffffffffffffffffffffffffffffffffffff1690508073ffffffffffffffffffffffffffffffffffffffff163373ffffffffffffffffffffffffffffffffffffffff161480610a375750600660008273ffffffffffffffffffffffffffffffffffffffff1673ffffffffffffffffffffffffffffffffffffffff16815260200190815260200160002060003373ffffffffffffffffffffffffffffffffffffffff1673ffffffffffffffffffffffffffffffffffffffff16815260200190815260200160002060009054906101000a900460ff165b610a76576040517f08c379a0000000000000000000000000000000000000000000000000000000008152600401610a6d90614006565b60405180910390fd5b826005600084815260200190815260200160002060006101000a81548173ffffffffffffffffffffffffffffffffffffffff021916908373ffffffffffffffffffffffffffffffffffffffff160217905550818373ffffffffffffffffffffffffffffffffffffffff168273ffffffffffffffffffffffffffffffffffffffff167f8c5be1e5ebec7d5bd14f71427d1e84f3dd0314c0f7b2291e5b200ac8c7c3b92560405160405180910390a4505050565b6040518060400160405280600381526020017f312e3000000000000000000000000000000000000000000000000000000000008152508051906020012081565b610b706122d0565b610b798161234e565b50565b60a06020528060005260406000206000915090505481565b60007f8b73c3c69bb8fe3d512ecc4cf759cc79239f7b179b0ffacaa9a75d522b39400f6040518060400160405280600881526020017f5765623347616d65000000000000000000000000000000000000000000000000815250805190602001206040518060400160405280600381526020017f312e300000000000000000000000000000000000000000000000000000000000815250805190602001204630604051602001610c47959493929190614026565b60405160208183030381529060405280519060200120905090565b6000600980549050905090565b610c7a8383836123e0565b6003600082815260200190815260200160002060009054906101000a900473ffffffffffffffffffffffffffffffffffffffff1673ffffffffffffffffffffffffffffffffffffffff168373ffffffffffffffffffffffffffffffffffffffff1614610d1b576040517f08c379a0000000000000000000000000000000000000000000000000000000008152600401610d12906140c5565b60405180910390fd5b600073ffffffffffffffffffffffffffffffffffffffff168273ffffffffffffffffffffffffffffffffffffffff1603610d8a576040517f08c379a0000000000000000000000000000000000000000000000000000000008152600401610d8190614131565b60405180910390fd5b8273ffffffffffffffffffffffffffffffffffffffff163373ffffffffffffffffffffffffffffffffffffffff161480610e4a5750600660008473ffffffffffffffffffffffffffffffffffffffff1673ffffffffffffffffffffffffffffffffffffffff16815260200190815260200160002060003373ffffffffffffffffffffffffffffffffffffffff1673ffffffffffffffffffffffffffffffffffffffff16815260200190815260200160002060009054906101000a900460ff165b80610eb357506005600082815260200190815260200160002060009054906101000a900473ffffffffffffffffffffffffffffffffffffffff1673ffffffffffffffffffffffffffffffffffffffff163373ffffffffffffffffffffffffffffffffffffffff16145b610ef2576040517f08c379a0000000000000000000000000000000000000000000000000000000008152600401610ee990614006565b60405180910390fd5b600460008473ffffffffffffffffffffffffffffffffffffffff1673ffffffffffffffffffffffffffffffffffffffff168152602001908152602001600020600081546001900391905081905550600460008373ffffffffffffffffffffffffffffffffffffffff1673ffffffffffffffffffffffffffffffffffffffff1681526020019081526020016000206000815460010191905081905550816003600083815260200190815260200160002060006101000a81548173ffffffffffffffffffffffffffffffffffffffff021916908373ffffffffffffffffffffffffffffffffffffffff1602179055506005600082815260200190815260200160002060006101000a81549073ffffffffffffffffffffffffffffffffffffffff0219169055808273ffffffffffffffffffffffffffffffffffffffff168473ffffffffffffffffffffffffffffffffffffffff167fddf252ad1be2c89b69c2b068fc378daa952ba7f163c4a11628f55a4df523b3ef60405160405180910390a461107b8383836124f2565b505050565b6000600460008473ffffffffffffffffffffffffffffffffffffffff1673ffffffffffffffffffffffffffffffffffffffff168152602001908152602001600020548210611103576040517f08c379a00000000000000000000000000000000000000000000000000000000081526004016110fa906141c3565b60405180910390fd5b600760008473ffffffffffffffffffffffffffffffffffffffff1673ffffffffffffffffffffffffffffffffffffffff168152602001908152602001600020600083815260200190815260200160002054905092915050565b6040518060400160405280600881526020017f5765623347616d650000000000000000000000000000000000000000000000008152508051906020012081565b60a16020528060005260406000206000915090505481565b60606000600460008673ffffffffffffffffffffffffffffffffffffffff1673ffffffffffffffffffffffffffffffffffffffff16815260200190815260200160002054905080831061122357600081036112125760009250611222565b60018161121f9190614212565b92505b5b8284111561127d57600067ffffffffffffffff81111561124657611245613944565b5b6040519080825280602002602001820160405280156112745781602001602082028036833780820191505090505b50915050611336565b6001848461128b9190614212565b6112959190614246565b67ffffffffffffffff8111156112ae576112ad613944565b5b6040519080825280602002602001820160405280156112dc5781602001602082028036833780820191505090505b50915060008490505b838111611333576112f68682611080565b8386836113039190614212565b815181106113145761131361427a565b5b602002602001018181525050808061132b906142a9565b9150506112e5565b50505b9392505050565b611348838383610c6f565b60008273ffffffffffffffffffffffffffffffffffffffff163b1480611431575063150b7a0260e01b7bffffffffffffffffffffffffffffffffffffffffffffffffffffffff19168273ffffffffffffffffffffffffffffffffffffffff1663150b7a023386856040518463ffffffff1660e01b81526004016113cd93929190614328565b6020604051808303816000875af11580156113ec573d6000803e3d6000fd5b505050506040513d601f19601f820116820180604052508101906114109190614387565b7bffffffffffffffffffffffffffffffffffffffffffffffffffffffff1916145b611470576040517f08c379a000000000000000000000000000000000000000000000000000000000815260040161146790614400565b60405180910390fd5b505050565b600060405180606001604052808773ffffffffffffffffffffffffffffffffffffffff16815260200186815260200185815250905060006114ce6114b883611f30565b6114c0610b94565b6124f790919063ffffffff16565b9050600061152985858080601f016020809104026020016040519081016040528093929190818152602001838380828437600081840152601f19601f820116905080830192505050505050508361253890919063ffffffff16565b9050603960008273ffffffffffffffffffffffffffffffffffffffff1673ffffffffffffffffffffffffffffffffffffffff16815260200190815260200160002060009054906101000a900460ff166115b7576040517f08c379a00000000000000000000000000000000000000000000000000000000081526004016115ae90614492565b60405180910390fd5b854211156115fa576040517f08c379a00000000000000000000000000000000000000000000000000000000081526004016115f190614524565b60405180910390fd5b5050505050505050565b60008060019054906101000a900460ff161590508080156116355750600160008054906101000a900460ff1660ff16105b8061166257506116443061255f565b1580156116615750600160008054906101000a900460ff1660ff16145b5b6116a1576040517f08c379a0000000000000000000000000000000000000000000000000000000008152600401611698906145b6565b60405180910390fd5b60016000806101000a81548160ff021916908360ff16021790555080156116de576001600060016101000a81548160ff0219169083151502179055505b6116e6612582565b6116f083836125db565b6001609f8190555080156117515760008060016101000a81548160ff0219169083151502179055507f7f26b83ff96e1f2b6a682f133852f6798a09c465da95921460cefb384740249860016040516117489190614628565b60405180910390a15b505050565b6000611760610c62565b82106117a1576040517f08c379a0000000000000000000000000000000000000000000000000000000008152600401611798906146b5565b60405180910390fd5b600982815481106117b5576117b461427a565b5b90600052602060002001549050919050565b6117cf6122d0565b80609e90816117de9190614877565b5050565b81819050845114611828576040517f08c379a000000000000000000000000000000000000000000000000000000000815260040161181f90614995565b60405180910390fd5b60005b84518110156118915761187e8686838151811061184b5761184a61427a565b5b6020026020010151868686868181106118675761186661427a565b5b905060200281019061187991906149c4565b611a6e565b8080611889906142a9565b91505061182b565b505050505050565b60036020528060005260406000206000915054906101000a900473ffffffffffffffffffffffffffffffffffffffff1681565b7f95223631a5bcb1702dd685baf770902fd39b576c8904aef9670546d50806f1ce81565b60608282905067ffffffffffffffff81111561190f5761190e613944565b5b60405190808252806020026020018201604052801561193d5781602001602082028036833780820191505090505b50905060005b838390508110156119ad5760a160008585848181106119655761196461427a565b5b9050602002013581526020019081526020016000205482828151811061198e5761198d61427a565b5b60200260200101818152505080806119a5906142a9565b915050611943565b5092915050565b609e80546119c190613f89565b80601f01602080910402602001604051908101604052809291908181526020018280546119ed90613f89565b8015611a3a5780601f10611a0f57610100808354040283529160200191611a3a565b820191906000526020600020905b815481529060010190602001808311611a1d57829003601f168201915b505050505081565b60046020528060005260406000206000915090505481565b611a626122d0565b611a6c600061264e565b565b611a7b8585858585611475565b60008411611abe576040517f08c379a0000000000000000000000000000000000000000000000000000000008152600401611ab590614a73565b60405180910390fd5b600060a060008681526020019081526020016000205414611b14576040517f08c379a0000000000000000000000000000000000000000000000000000000008152600401611b0b90614adf565b60405180910390fd5b611b2085609f54612714565b609f5460a06000868152602001908152602001600020819055508360a16000609f54815260200190815260200160002081905550609f6000815480929190611b67906142a9565b91905055505050505050565b609f5481565b6000606c60009054906101000a900473ffffffffffffffffffffffffffffffffffffffff16905090565b60028054611bb090613f89565b80601f0160208091040260200160405190810160405280929190818152602001828054611bdc90613f89565b8015611c295780601f10611bfe57610100808354040283529160200191611c29565b820191906000526020600020905b815481529060010190602001808311611c0c57829003601f168201915b505050505081565b60608282905067ffffffffffffffff811115611c5057611c4f613944565b5b604051908082528060200260200182016040528015611c7e5781602001602082028036833780820191505090505b50905060005b83839050811015611cee5760a06000858584818110611ca657611ca561427a565b5b90506020020135815260200190815260200160002054828281518110611ccf57611cce61427a565b5b6020026020010181815250508080611ce6906142a9565b915050611c84565b5092915050565b80600660003373ffffffffffffffffffffffffffffffffffffffff1673ffffffffffffffffffffffffffffffffffffffff16815260200190815260200160002060008473ffffffffffffffffffffffffffffffffffffffff1673ffffffffffffffffffffffffffffffffffffffff16815260200190815260200160002060006101000a81548160ff0219169083151502179055508173ffffffffffffffffffffffffffffffffffffffff163373ffffffffffffffffffffffffffffffffffffffff167f17307eab39ab6107e8899845ad3d59bd9653f200f220920489ca2b5937696c3183604051611de69190613449565b60405180910390a35050565b611dfd858585610c6f565b60008473ffffffffffffffffffffffffffffffffffffffff163b1480611eea575063150b7a0260e01b7bffffffffffffffffffffffffffffffffffffffffffffffffffffffff19168473ffffffffffffffffffffffffffffffffffffffff1663150b7a0233888787876040518663ffffffff1660e01b8152600401611e86959493929190614b2c565b6020604051808303816000875af1158015611ea5573d6000803e3d6000fd5b505050506040513d601f19601f82011682018060405250810190611ec99190614387565b7bffffffffffffffffffffffffffffffffffffffffffffffffffffffff1916145b611f29576040517f08c379a0000000000000000000000000000000000000000000000000000000008152600401611f2090614400565b60405180910390fd5b5050505050565b60007f95223631a5bcb1702dd685baf770902fd39b576c8904aef9670546d50806f1ce826000015183602001518460400151604051602001611f759493929190614b7a565b604051602081830303815290604052805190602001209050919050565b7f8b73c3c69bb8fe3d512ecc4cf759cc79239f7b179b0ffacaa9a75d522b39400f81565b60606000609e8054611fc790613f89565b905011611fe3576040518060200160405280600081525061200f565b609e611fee8361284b565b604051602001611fff929190614c7e565b6040516020818303038152906040525b9050919050565b60396020528060005260406000206000915054906101000a900460ff1681565b60066020528160005260406000206020528060005260406000206000915091509054906101000a900460ff1681565b61206d6122d0565b61207681612919565b50565b60008060019054906101000a900460ff161590508080156120aa5750600160008054906101000a900460ff1660ff16105b806120d757506120b93061255f565b1580156120d65750600160008054906101000a900460ff1660ff16145b5b612116576040517f08c379a000000000000000000000000000000000000000000000000000000000815260040161210d906145b6565b60405180910390fd5b60016000806101000a81548160ff021916908360ff1602179055508015612153576001600060016101000a81548160ff0219169083151502179055505b61215d83836125db565b80156121b65760008060016101000a81548160ff0219169083151502179055507f7f26b83ff96e1f2b6a682f133852f6798a09c465da95921460cefb384740249860016040516121ad9190614628565b60405180910390a15b505050565b6121c36122d0565b600073ffffffffffffffffffffffffffffffffffffffff168173ffffffffffffffffffffffffffffffffffffffff1603612232576040517f08c379a000000000000000000000000000000000000000000000000000000000815260040161222990614d14565b60405180910390fd5b61223b8161264e565b50565b60006301ffc9a760e01b827bffffffffffffffffffffffffffffffffffffffffffffffffffffffff1916148061229957506380ac58cd60e01b827bffffffffffffffffffffffffffffffffffffffffffffffffffffffff1916145b806122c95750635b5e139f60e01b827bffffffffffffffffffffffffffffffffffffffffffffffffffffffff1916145b9050919050565b6122d86129ab565b73ffffffffffffffffffffffffffffffffffffffff166122f6611b79565b73ffffffffffffffffffffffffffffffffffffffff161461234c576040517f08c379a000000000000000000000000000000000000000000000000000000000815260040161234390614d80565b60405180910390fd5b565b6000603960008373ffffffffffffffffffffffffffffffffffffffff1673ffffffffffffffffffffffffffffffffffffffff16815260200190815260200160002060006101000a81548160ff0219169083151502179055507f3525e22824a8a7df2c9a6029941c824cf95b6447f1e13d5128fd3826d35afe8b816040516123d591906135ba565b60405180910390a150565b6123eb8383836129b3565b600073ffffffffffffffffffffffffffffffffffffffff168373ffffffffffffffffffffffffffffffffffffffff160361242d57612428816129b8565b61246c565b8173ffffffffffffffffffffffffffffffffffffffff168373ffffffffffffffffffffffffffffffffffffffff161461246b5761246a8382612a01565b5b5b600073ffffffffffffffffffffffffffffffffffffffff168273ffffffffffffffffffffffffffffffffffffffff16036124ae576124a981612ba5565b6124ed565b8273ffffffffffffffffffffffffffffffffffffffff168273ffffffffffffffffffffffffffffffffffffffff16146124ec576124eb8282612c76565b5b5b505050565b505050565b60006040517f190100000000000000000000000000000000000000000000000000000000000081528360028201528260228201526042812091505092915050565b60008060006125478585612d2c565b9150915061255481612d7d565b819250505092915050565b6000808273ffffffffffffffffffffffffffffffffffffffff163b119050919050565b600060019054906101000a900460ff166125d1576040517f08c379a00000000000000000000000000000000000000000000000000000000081526004016125c890614e12565b60405180910390fd5b6125d9612ee3565b565b600060019054906101000a900460ff1661262a576040517f08c379a000000000000000000000000000000000000000000000000000000000815260040161262190614e12565b60405180910390fd5b81600190816126399190614877565b5080600290816126499190614877565b505050565b6000606c60009054906101000a900473ffffffffffffffffffffffffffffffffffffffff16905081606c60006101000a81548173ffffffffffffffffffffffffffffffffffffffff021916908373ffffffffffffffffffffffffffffffffffffffff1602179055508173ffffffffffffffffffffffffffffffffffffffff168173ffffffffffffffffffffffffffffffffffffffff167f8be0079c531659141344cd1fd0a4f28419497f9722a3daafe3b4186f6b6457e060405160405180910390a35050565b61271e8282612f44565b60008273ffffffffffffffffffffffffffffffffffffffff163b1480612808575063150b7a0260e01b7bffffffffffffffffffffffffffffffffffffffffffffffffffffffff19168273ffffffffffffffffffffffffffffffffffffffff1663150b7a02336000856040518463ffffffff1660e01b81526004016127a493929190614328565b6020604051808303816000875af11580156127c3573d6000803e3d6000fd5b505050506040513d601f19601f820116820180604052508101906127e79190614387565b7bffffffffffffffffffffffffffffffffffffffffffffffffffffffff1916145b612847576040517f08c379a000000000000000000000000000000000000000000000000000000000815260040161283e90614400565b60405180910390fd5b5050565b60606000600161285a84613160565b01905060008167ffffffffffffffff81111561287957612878613944565b5b6040519080825280601f01601f1916602001820160405280156128ab5781602001600182028036833780820191505090505b509050600082602001820190505b60011561290e578080600190039150507f3031323334353637383961626364656600000000000000000000000000000000600a86061a8153600a858161290257612901614e32565b5b049450600085036128b9575b819350505050919050565b6001603960008373ffffffffffffffffffffffffffffffffffffffff1673ffffffffffffffffffffffffffffffffffffffff16815260200190815260200160002060006101000a81548160ff0219169083151502179055507f47d1c22a25bb3a5d4e481b9b1e6944c2eade3181a0a20b495ed61d35b5323f24816040516129a091906135ba565b60405180910390a150565b600033905090565b505050565b600980549050600a600083815260200190815260200160002081905550600981908060018154018082558091505060019003906000526020600020016000909190919091505550565b60006001600460008573ffffffffffffffffffffffffffffffffffffffff1673ffffffffffffffffffffffffffffffffffffffff16815260200190815260200160002054612a4f9190614212565b9050600060086000848152602001908152602001600020549050818114612b34576000600760008673ffffffffffffffffffffffffffffffffffffffff1673ffffffffffffffffffffffffffffffffffffffff168152602001908152602001600020600084815260200190815260200160002054905080600760008773ffffffffffffffffffffffffffffffffffffffff1673ffffffffffffffffffffffffffffffffffffffff168152602001908152602001600020600084815260200190815260200160002081905550816008600083815260200190815260200160002081905550505b6008600084815260200190815260200160002060009055600760008573ffffffffffffffffffffffffffffffffffffffff1673ffffffffffffffffffffffffffffffffffffffff16815260200190815260200160002060008381526020019081526020016000206000905550505050565b60006001600980549050612bb99190614212565b90506000600a6000848152602001908152602001600020549050600060098381548110612be957612be861427a565b5b906000526020600020015490508060098381548110612c0b57612c0a61427a565b5b906000526020600020018190555081600a600083815260200190815260200160002081905550600a6000858152602001908152602001600020600090556009805480612c5a57612c59614e61565b5b6001900381819060005260206000200160009055905550505050565b6000600460008473ffffffffffffffffffffffffffffffffffffffff1673ffffffffffffffffffffffffffffffffffffffff16815260200190815260200160002054905081600760008573ffffffffffffffffffffffffffffffffffffffff1673ffffffffffffffffffffffffffffffffffffffff168152602001908152602001600020600083815260200190815260200160002081905550806008600084815260200190815260200160002081905550505050565b6000806041835103612d6d5760008060006020860151925060408601519150606086015160001a9050612d61878285856132b3565b94509450505050612d76565b60006002915091505b9250929050565b60006004811115612d9157612d90614e90565b5b816004811115612da457612da3614e90565b5b0315612ee05760016004811115612dbe57612dbd614e90565b5b816004811115612dd157612dd0614e90565b5b03612e11576040517f08c379a0000000000000000000000000000000000000000000000000000000008152600401612e0890614f0b565b60405180910390fd5b60026004811115612e2557612e24614e90565b5b816004811115612e3857612e37614e90565b5b03612e78576040517f08c379a0000000000000000000000000000000000000000000000000000000008152600401612e6f90614f77565b60405180910390fd5b60036004811115612e8c57612e8b614e90565b5b816004811115612e9f57612e9e614e90565b5b03612edf576040517f08c379a0000000000000000000000000000000000000000000000000000000008152600401612ed690615009565b60405180910390fd5b5b50565b600060019054906101000a900460ff16612f32576040517f08c379a0000000000000000000000000000000000000000000000000000000008152600401612f2990614e12565b60405180910390fd5b612f42612f3d6129ab565b61264e565b565b600073ffffffffffffffffffffffffffffffffffffffff168273ffffffffffffffffffffffffffffffffffffffff1603612fb3576040517f08c379a0000000000000000000000000000000000000000000000000000000008152600401612faa90614131565b60405180910390fd5b600073ffffffffffffffffffffffffffffffffffffffff166003600083815260200190815260200160002060009054906101000a900473ffffffffffffffffffffffffffffffffffffffff1673ffffffffffffffffffffffffffffffffffffffff1614613055576040517f08c379a000000000000000000000000000000000000000000000000000000000815260040161304c90615075565b60405180910390fd5b613061600083836123e0565b600460008373ffffffffffffffffffffffffffffffffffffffff1673ffffffffffffffffffffffffffffffffffffffff1681526020019081526020016000206000815460010191905081905550816003600083815260200190815260200160002060006101000a81548173ffffffffffffffffffffffffffffffffffffffff021916908373ffffffffffffffffffffffffffffffffffffffff160217905550808273ffffffffffffffffffffffffffffffffffffffff16600073ffffffffffffffffffffffffffffffffffffffff167fddf252ad1be2c89b69c2b068fc378daa952ba7f163c4a11628f55a4df523b3ef60405160405180910390a45050565b600080600090507a184f03e93ff9f4daa797ed6e38ed64bf6a1f01000000000000000083106131be577a184f03e93ff9f4daa797ed6e38ed64bf6a1f01000000000000000083816131b4576131b3614e32565b5b0492506040810190505b6d04ee2d6d415b85acef810000000083106131fb576d04ee2d6d415b85acef810000000083816131f1576131f0614e32565b5b0492506020810190505b662386f26fc10000831061322a57662386f26fc1000083816132205761321f614e32565b5b0492506010810190505b6305f5e1008310613253576305f5e100838161324957613248614e32565b5b0492506008810190505b612710831061327857612710838161326e5761326d614e32565b5b0492506004810190505b6064831061329b576064838161329157613290614e32565b5b0492506002810190505b600a83106132aa576001810190505b80915050919050565b6000807f7fffffffffffffffffffffffffffffff5d576e7357a4501ddfe92f46681b20a08360001c11156132ee57600060039150915061338c565b60006001878787876040516000815260200160405260405161331394939291906150a4565b6020604051602081039080840390855afa158015613335573d6000803e3d6000fd5b505050602060405103519050600073ffffffffffffffffffffffffffffffffffffffff168173ffffffffffffffffffffffffffffffffffffffff16036133835760006001925092505061338c565b80600092509250505b94509492505050565b6000604051905090565b600080fd5b600080fd5b60007fffffffff0000000000000000000000000000000000000000000000000000000082169050919050565b6133de816133a9565b81146133e957600080fd5b50565b6000813590506133fb816133d5565b92915050565b6000602082840312156134175761341661339f565b5b6000613425848285016133ec565b91505092915050565b60008115159050919050565b6134438161342e565b82525050565b600060208201905061345e600083018461343a565b92915050565b600081519050919050565b600082825260208201905092915050565b60005b8381101561349e578082015181840152602081019050613483565b60008484015250505050565b6000601f19601f8301169050919050565b60006134c682613464565b6134d0818561346f565b93506134e0818560208601613480565b6134e9816134aa565b840191505092915050565b6000602082019050818103600083015261350e81846134bb565b905092915050565b6000819050919050565b61352981613516565b811461353457600080fd5b50565b60008135905061354681613520565b92915050565b6000602082840312156135625761356161339f565b5b600061357084828501613537565b91505092915050565b600073ffffffffffffffffffffffffffffffffffffffff82169050919050565b60006135a482613579565b9050919050565b6135b481613599565b82525050565b60006020820190506135cf60008301846135ab565b92915050565b6135de81613599565b81146135e957600080fd5b50565b6000813590506135fb816135d5565b92915050565b600080604083850312156136185761361761339f565b5b6000613626858286016135ec565b925050602061363785828601613537565b9150509250929050565b6000819050919050565b61365481613641565b82525050565b600060208201905061366f600083018461364b565b92915050565b60006020828403121561368b5761368a61339f565b5b6000613699848285016135ec565b91505092915050565b6136ab81613516565b82525050565b60006020820190506136c660008301846136a2565b92915050565b6000806000606084860312156136e5576136e461339f565b5b60006136f3868287016135ec565b9350506020613704868287016135ec565b925050604061371586828701613537565b9150509250925092565b6000806000606084860312156137385761373761339f565b5b6000613746868287016135ec565b935050602061375786828701613537565b925050604061376886828701613537565b9150509250925092565b600081519050919050565b600082825260208201905092915050565b6000819050602082019050919050565b6137a781613516565b82525050565b60006137b9838361379e565b60208301905092915050565b6000602082019050919050565b60006137dd82613772565b6137e7818561377d565b93506137f28361378e565b8060005b8381101561382357815161380a88826137ad565b9750613815836137c5565b9250506001810190506137f6565b5085935050505092915050565b6000602082019050818103600083015261384a81846137d2565b905092915050565b600080fd5b600080fd5b600080fd5b60008083601f84011261387757613876613852565b5b8235905067ffffffffffffffff81111561389457613893613857565b5b6020830191508360018202830111156138b0576138af61385c565b5b9250929050565b6000806000806000608086880312156138d3576138d261339f565b5b60006138e1888289016135ec565b95505060206138f288828901613537565b945050604061390388828901613537565b935050606086013567ffffffffffffffff811115613924576139236133a4565b5b61393088828901613861565b92509250509295509295909350565b600080fd5b7f4e487b7100000000000000000000000000000000000000000000000000000000600052604160045260246000fd5b61397c826134aa565b810181811067ffffffffffffffff8211171561399b5761399a613944565b5b80604052505050565b60006139ae613395565b90506139ba8282613973565b919050565b600067ffffffffffffffff8211156139da576139d9613944565b5b6139e3826134aa565b9050602081019050919050565b82818337600083830152505050565b6000613a12613a0d846139bf565b6139a4565b905082815260208101848484011115613a2e57613a2d61393f565b5b613a398482856139f0565b509392505050565b600082601f830112613a5657613a55613852565b5b8135613a668482602086016139ff565b91505092915050565b60008060408385031215613a8657613a8561339f565b5b600083013567ffffffffffffffff811115613aa457613aa36133a4565b5b613ab085828601613a41565b925050602083013567ffffffffffffffff811115613ad157613ad06133a4565b5b613add85828601613a41565b9150509250929050565b600060208284031215613afd57613afc61339f565b5b600082013567ffffffffffffffff811115613b1b57613b1a6133a4565b5b613b2784828501613a41565b91505092915050565b600067ffffffffffffffff821115613b4b57613b4a613944565b5b602082029050602081019050919050565b6000613b6f613b6a84613b30565b6139a4565b90508083825260208201905060208402830185811115613b9257613b9161385c565b5b835b81811015613bbb5780613ba78882613537565b845260208401935050602081019050613b94565b5050509392505050565b600082601f830112613bda57613bd9613852565b5b8135613bea848260208601613b5c565b91505092915050565b60008083601f840112613c0957613c08613852565b5b8235905067ffffffffffffffff811115613c2657613c25613857565b5b602083019150836020820283011115613c4257613c4161385c565b5b9250929050565b600080600080600060808688031215613c6557613c6461339f565b5b6000613c73888289016135ec565b955050602086013567ffffffffffffffff811115613c9457613c936133a4565b5b613ca088828901613bc5565b9450506040613cb188828901613537565b935050606086013567ffffffffffffffff811115613cd257613cd16133a4565b5b613cde88828901613bf3565b92509250509295509295909350565b60008083601f840112613d0357613d02613852565b5b8235905067ffffffffffffffff811115613d2057613d1f613857565b5b602083019150836020820283011115613d3c57613d3b61385c565b5b9250929050565b60008060208385031215613d5a57613d5961339f565b5b600083013567ffffffffffffffff811115613d7857613d776133a4565b5b613d8485828601613ced565b92509250509250929050565b613d998161342e565b8114613da457600080fd5b50565b600081359050613db681613d90565b92915050565b60008060408385031215613dd357613dd261339f565b5b6000613de1858286016135ec565b9250506020613df285828601613da7565b9150509250929050565b600080600080600060808688031215613e1857613e1761339f565b5b6000613e26888289016135ec565b9550506020613e37888289016135ec565b9450506040613e4888828901613537565b935050606086013567ffffffffffffffff811115613e6957613e686133a4565b5b613e7588828901613861565b92509250509295509295909350565b600080fd5b600060608284031215613e9f57613e9e613e84565b5b613ea960606139a4565b90506000613eb9848285016135ec565b6000830152506020613ecd84828501613537565b6020830152506040613ee184828501613537565b60408301525092915050565b600060608284031215613f0357613f0261339f565b5b6000613f1184828501613e89565b91505092915050565b60008060408385031215613f3157613f3061339f565b5b6000613f3f858286016135ec565b9250506020613f50858286016135ec565b9150509250929050565b7f4e487b7100000000000000000000000000000000000000000000000000000000600052602260045260246000fd5b60006002820490506001821680613fa157607f821691505b602082108103613fb457613fb3613f5a565b5b50919050565b7f4e4f545f415554484f52495a4544000000000000000000000000000000000000600082015250565b6000613ff0600e8361346f565b9150613ffb82613fba565b602082019050919050565b6000602082019050818103600083015261401f81613fe3565b9050919050565b600060a08201905061403b600083018861364b565b614048602083018761364b565b614055604083018661364b565b61406260608301856136a2565b61406f60808301846135ab565b9695505050505050565b7f57524f4e475f46524f4d00000000000000000000000000000000000000000000600082015250565b60006140af600a8361346f565b91506140ba82614079565b602082019050919050565b600060208201905081810360008301526140de816140a2565b9050919050565b7f494e56414c49445f524543495049454e54000000000000000000000000000000600082015250565b600061411b60118361346f565b9150614126826140e5565b602082019050919050565b6000602082019050818103600083015261414a8161410e565b9050919050565b7f455243373231456e756d657261626c653a206f776e657220696e646578206f7560008201527f74206f6620626f756e6473000000000000000000000000000000000000000000602082015250565b60006141ad602b8361346f565b91506141b882614151565b604082019050919050565b600060208201905081810360008301526141dc816141a0565b9050919050565b7f4e487b7100000000000000000000000000000000000000000000000000000000600052601160045260246000fd5b600061421d82613516565b915061422883613516565b92508282039050818111156142405761423f6141e3565b5b92915050565b600061425182613516565b915061425c83613516565b9250828201905080821115614274576142736141e3565b5b92915050565b7f4e487b7100000000000000000000000000000000000000000000000000000000600052603260045260246000fd5b60006142b482613516565b91507fffffffffffffffffffffffffffffffffffffffffffffffffffffffffffffffff82036142e6576142e56141e3565b5b600182019050919050565b600082825260208201905092915050565b50565b60006143126000836142f1565b915061431d82614302565b600082019050919050565b600060808201905061433d60008301866135ab565b61434a60208301856135ab565b61435760408301846136a2565b818103606083015261436881614305565b9050949350505050565b600081519050614381816133d5565b92915050565b60006020828403121561439d5761439c61339f565b5b60006143ab84828501614372565b91505092915050565b7f554e534146455f524543495049454e5400000000000000000000000000000000600082015250565b60006143ea60108361346f565b91506143f5826143b4565b602082019050919050565b60006020820190508181036000830152614419816143dd565b9050919050565b7f416368696576656d656e7473466163746f72793a20496e76616c69642073696760008201527f6e65720000000000000000000000000000000000000000000000000000000000602082015250565b600061447c60238361346f565b915061448782614420565b604082019050919050565b600060208201905081810360008301526144ab8161446f565b9050919050565b7f416368696576656d656e7473466163746f72793a205369676e6174757265206560008201527f7870697265640000000000000000000000000000000000000000000000000000602082015250565b600061450e60268361346f565b9150614519826144b2565b604082019050919050565b6000602082019050818103600083015261453d81614501565b9050919050565b7f496e697469616c697a61626c653a20636f6e747261637420697320616c72656160008201527f647920696e697469616c697a6564000000000000000000000000000000000000602082015250565b60006145a0602e8361346f565b91506145ab82614544565b604082019050919050565b600060208201905081810360008301526145cf81614593565b9050919050565b6000819050919050565b600060ff82169050919050565b6000819050919050565b600061461261460d614608846145d6565b6145ed565b6145e0565b9050919050565b614622816145f7565b82525050565b600060208201905061463d6000830184614619565b92915050565b7f455243373231456e756d657261626c653a20676c6f62616c20696e646578206f60008201527f7574206f6620626f756e64730000000000000000000000000000000000000000602082015250565b600061469f602c8361346f565b91506146aa82614643565b604082019050919050565b600060208201905081810360008301526146ce81614692565b9050919050565b60008190508160005260206000209050919050565b60006020601f8301049050919050565b600082821b905092915050565b6000600883026147377fffffffffffffffffffffffffffffffffffffffffffffffffffffffffffffffff826146fa565b61474186836146fa565b95508019841693508086168417925050509392505050565b600061477461476f61476a84613516565b6145ed565b613516565b9050919050565b6000819050919050565b61478e83614759565b6147a261479a8261477b565b848454614707565b825550505050565b600090565b6147b76147aa565b6147c2818484614785565b505050565b5b818110156147e6576147db6000826147af565b6001810190506147c8565b5050565b601f82111561482b576147fc816146d5565b614805846146ea565b81016020851015614814578190505b614828614820856146ea565b8301826147c7565b50505b505050565b600082821c905092915050565b600061484e60001984600802614830565b1980831691505092915050565b6000614867838361483d565b9150826002028217905092915050565b61488082613464565b67ffffffffffffffff81111561489957614898613944565b5b6148a38254613f89565b6148ae8282856147ea565b600060209050601f8311600181146148e157600084156148cf578287015190505b6148d9858261485b565b865550614941565b601f1984166148ef866146d5565b60005b82811015614917578489015182556001820191506020850194506020810190506148f2565b868310156149345784890151614930601f89168261483d565b8355505b6001600288020188555050505b505050505050565b7f496e76616c696420696e70757400000000000000000000000000000000000000600082015250565b600061497f600d8361346f565b915061498a82614949565b602082019050919050565b600060208201905081810360008301526149ae81614972565b9050919050565b600080fd5b600080fd5b600080fd5b600080833560016020038436030381126149e1576149e06149b5565b5b80840192508235915067ffffffffffffffff821115614a0357614a026149ba565b5b602083019250600182023603831315614a1f57614a1e6149bf565b5b509250929050565b7f496e76616c6964206974656d2069640000000000000000000000000000000000600082015250565b6000614a5d600f8361346f565b9150614a6882614a27565b602082019050919050565b60006020820190508181036000830152614a8c81614a50565b9050919050565b7f4974656d20616c7265616479206d696e74656400000000000000000000000000600082015250565b6000614ac960138361346f565b9150614ad482614a93565b602082019050919050565b60006020820190508181036000830152614af881614abc565b9050919050565b6000614b0b83856142f1565b9350614b188385846139f0565b614b21836134aa565b840190509392505050565b6000608082019050614b4160008301886135ab565b614b4e60208301876135ab565b614b5b60408301866136a2565b8181036060830152614b6e818486614aff565b90509695505050505050565b6000608082019050614b8f600083018761364b565b614b9c60208301866135ab565b614ba960408301856136a2565b614bb660608301846136a2565b95945050505050565b600081905092915050565b60008154614bd781613f89565b614be18186614bbf565b94506001821660008114614bfc5760018114614c1157614c44565b60ff1983168652811515820286019350614c44565b614c1a856146d5565b60005b83811015614c3c57815481890152600182019150602081019050614c1d565b838801955050505b50505092915050565b6000614c5882613464565b614c628185614bbf565b9350614c72818560208601613480565b80840191505092915050565b6000614c8a8285614bca565b9150614c968284614c4d565b91508190509392505050565b7f4f776e61626c653a206e6577206f776e657220697320746865207a65726f206160008201527f6464726573730000000000000000000000000000000000000000000000000000602082015250565b6000614cfe60268361346f565b9150614d0982614ca2565b604082019050919050565b60006020820190508181036000830152614d2d81614cf1565b9050919050565b7f4f776e61626c653a2063616c6c6572206973206e6f7420746865206f776e6572600082015250565b6000614d6a60208361346f565b9150614d7582614d34565b602082019050919050565b60006020820190508181036000830152614d9981614d5d565b9050919050565b7f496e697469616c697a61626c653a20636f6e7472616374206973206e6f74206960008201527f6e697469616c697a696e67000000000000000000000000000000000000000000602082015250565b6000614dfc602b8361346f565b9150614e0782614da0565b604082019050919050565b60006020820190508181036000830152614e2b81614def565b9050919050565b7f4e487b7100000000000000000000000000000000000000000000000000000000600052601260045260246000fd5b7f4e487b7100000000000000000000000000000000000000000000000000000000600052603160045260246000fd5b7f4e487b7100000000000000000000000000000000000000000000000000000000600052602160045260246000fd5b7f45434453413a20696e76616c6964207369676e61747572650000000000000000600082015250565b6000614ef560188361346f565b9150614f0082614ebf565b602082019050919050565b60006020820190508181036000830152614f2481614ee8565b9050919050565b7f45434453413a20696e76616c6964207369676e6174757265206c656e67746800600082015250565b6000614f61601f8361346f565b9150614f6c82614f2b565b602082019050919050565b60006020820190508181036000830152614f9081614f54565b9050919050565b7f45434453413a20696e76616c6964207369676e6174757265202773272076616c60008201527f7565000000000000000000000000000000000000000000000000000000000000602082015250565b6000614ff360228361346f565b9150614ffe82614f97565b604082019050919050565b6000602082019050818103600083015261502281614fe6565b9050919050565b7f414c52454144595f4d494e544544000000000000000000000000000000000000600082015250565b600061505f600e8361346f565b915061506a82615029565b602082019050919050565b6000602082019050818103600083015261508e81615052565b9050919050565b61509e816145e0565b82525050565b60006080820190506150b9600083018761364b565b6150c66020830186615095565b6150d3604083018561364b565b6150e0606083018461364b565b9594505050505056fea264697066735822122029987b64368a6789ac216309a1faf8ac5b80a7f11460732b154b1f2bc064b8eb64736f6c63430008110033",
  "devdoc": {
    "kind": "dev",
    "methods": {
      "owner()": {
        "details": "Returns the address of the current owner."
      },
      "renounceOwnership()": {
        "details": "Leaves the contract without owner. It will not be possible to call `onlyOwner` functions. Can only be called by the current owner. NOTE: Renouncing ownership will leave the contract without an owner, thereby disabling any functionality that is only available to the owner."
      },
      "supportsInterface(bytes4)": {
        "details": "See {IERC165-supportsInterface}."
      },
      "tokenByIndex(uint256)": {
        "details": "See {IERC721Enumerable-tokenByIndex}."
      },
      "tokenOfOwnerByIndex(address,uint256)": {
        "details": "See {IERC721Enumerable-tokenOfOwnerByIndex}."
      },
      "totalSupply()": {
        "details": "See {IERC721Enumerable-totalSupply}."
      },
      "transferOwnership(address)": {
        "details": "Transfers ownership of the contract to a new account (`newOwner`). Can only be called by the current owner."
      }
    },
    "version": 1
  },
  "userdoc": {
    "kind": "user",
    "methods": {},
    "version": 1
  },
  "storageLayout": {
    "storage": [
      {
        "astId": 138,
        "contract": "contracts/MyNFT.sol:MyNFT",
        "label": "_initialized",
        "offset": 0,
        "slot": "0",
        "type": "t_uint8"
      },
      {
        "astId": 141,
        "contract": "contracts/MyNFT.sol:MyNFT",
        "label": "_initializing",
        "offset": 1,
        "slot": "0",
        "type": "t_bool"
      },
      {
        "astId": 4531,
        "contract": "contracts/MyNFT.sol:MyNFT",
        "label": "name",
        "offset": 0,
        "slot": "1",
        "type": "t_string_storage"
      },
      {
        "astId": 4533,
        "contract": "contracts/MyNFT.sol:MyNFT",
        "label": "symbol",
        "offset": 0,
        "slot": "2",
        "type": "t_string_storage"
      },
      {
        "astId": 4537,
        "contract": "contracts/MyNFT.sol:MyNFT",
        "label": "ownerOf",
        "offset": 0,
        "slot": "3",
        "type": "t_mapping(t_uint256,t_address)"
      },
      {
        "astId": 4541,
        "contract": "contracts/MyNFT.sol:MyNFT",
        "label": "balanceOf",
        "offset": 0,
        "slot": "4",
        "type": "t_mapping(t_address,t_uint256)"
      },
      {
        "astId": 4545,
        "contract": "contracts/MyNFT.sol:MyNFT",
        "label": "getApproved",
        "offset": 0,
        "slot": "5",
        "type": "t_mapping(t_uint256,t_address)"
      },
      {
        "astId": 4551,
        "contract": "contracts/MyNFT.sol:MyNFT",
        "label": "isApprovedForAll",
        "offset": 0,
        "slot": "6",
        "type": "t_mapping(t_address,t_mapping(t_address,t_bool))"
      },
      {
        "astId": 4195,
        "contract": "contracts/MyNFT.sol:MyNFT",
        "label": "_ownedTokens",
        "offset": 0,
        "slot": "7",
        "type": "t_mapping(t_address,t_mapping(t_uint256,t_uint256))"
      },
      {
        "astId": 4199,
        "contract": "contracts/MyNFT.sol:MyNFT",
        "label": "_ownedTokensIndex",
        "offset": 0,
        "slot": "8",
        "type": "t_mapping(t_uint256,t_uint256)"
      },
      {
        "astId": 4202,
        "contract": "contracts/MyNFT.sol:MyNFT",
        "label": "_allTokens",
        "offset": 0,
        "slot": "9",
        "type": "t_array(t_uint256)dyn_storage"
      },
      {
        "astId": 4206,
        "contract": "contracts/MyNFT.sol:MyNFT",
        "label": "_allTokensIndex",
        "offset": 0,
        "slot": "10",
        "type": "t_mapping(t_uint256,t_uint256)"
      },
      {
        "astId": 4515,
        "contract": "contracts/MyNFT.sol:MyNFT",
        "label": "__gap",
        "offset": 0,
        "slot": "11",
        "type": "t_array(t_uint256)46_storage"
      },
      {
        "astId": 4041,
        "contract": "contracts/MyNFT.sol:MyNFT",
        "label": "isValidSigner",
        "offset": 0,
        "slot": "57",
        "type": "t_mapping(t_address,t_bool)"
      },
      {
        "astId": 818,
        "contract": "contracts/MyNFT.sol:MyNFT",
        "label": "__gap",
        "offset": 0,
        "slot": "58",
        "type": "t_array(t_uint256)50_storage"
      },
      {
        "astId": 10,
        "contract": "contracts/MyNFT.sol:MyNFT",
        "label": "_owner",
        "offset": 0,
        "slot": "108",
        "type": "t_address"
      },
      {
        "astId": 130,
        "contract": "contracts/MyNFT.sol:MyNFT",
        "label": "__gap",
        "offset": 0,
        "slot": "109",
        "type": "t_array(t_uint256)49_storage"
      },
      {
        "astId": 3630,
        "contract": "contracts/MyNFT.sol:MyNFT",
        "label": "baseURI",
        "offset": 0,
        "slot": "158",
        "type": "t_string_storage"
      },
      {
        "astId": 3632,
        "contract": "contracts/MyNFT.sol:MyNFT",
        "label": "nextTokenId",
        "offset": 0,
        "slot": "159",
        "type": "t_uint256"
      },
      {
        "astId": 3636,
        "contract": "contracts/MyNFT.sol:MyNFT",
        "label": "itemIdToTokenId",
        "offset": 0,
        "slot": "160",
        "type": "t_mapping(t_uint256,t_uint256)"
      },
      {
        "astId": 3640,
        "contract": "contracts/MyNFT.sol:MyNFT",
        "label": "tokenIdToItemId",
        "offset": 0,
        "slot": "161",
        "type": "t_mapping(t_uint256,t_uint256)"
      }
    ],
    "types": {
      "t_address": {
        "encoding": "inplace",
        "label": "address",
        "numberOfBytes": "20"
      },
      "t_array(t_uint256)46_storage": {
        "base": "t_uint256",
        "encoding": "inplace",
        "label": "uint256[46]",
        "numberOfBytes": "1472"
      },
      "t_array(t_uint256)49_storage": {
        "base": "t_uint256",
        "encoding": "inplace",
        "label": "uint256[49]",
        "numberOfBytes": "1568"
      },
      "t_array(t_uint256)50_storage": {
        "base": "t_uint256",
        "encoding": "inplace",
        "label": "uint256[50]",
        "numberOfBytes": "1600"
      },
      "t_array(t_uint256)dyn_storage": {
        "base": "t_uint256",
        "encoding": "dynamic_array",
        "label": "uint256[]",
        "numberOfBytes": "32"
      },
      "t_bool": {
        "encoding": "inplace",
        "label": "bool",
        "numberOfBytes": "1"
      },
      "t_mapping(t_address,t_bool)": {
        "encoding": "mapping",
        "key": "t_address",
        "label": "mapping(address => bool)",
        "numberOfBytes": "32",
        "value": "t_bool"
      },
      "t_mapping(t_address,t_mapping(t_address,t_bool))": {
        "encoding": "mapping",
        "key": "t_address",
        "label": "mapping(address => mapping(address => bool))",
        "numberOfBytes": "32",
        "value": "t_mapping(t_address,t_bool)"
      },
      "t_mapping(t_address,t_mapping(t_uint256,t_uint256))": {
        "encoding": "mapping",
        "key": "t_address",
        "label": "mapping(address => mapping(uint256 => uint256))",
        "numberOfBytes": "32",
        "value": "t_mapping(t_uint256,t_uint256)"
      },
      "t_mapping(t_address,t_uint256)": {
        "encoding": "mapping",
        "key": "t_address",
        "label": "mapping(address => uint256)",
        "numberOfBytes": "32",
        "value": "t_uint256"
      },
      "t_mapping(t_uint256,t_address)": {
        "encoding": "mapping",
        "key": "t_uint256",
        "label": "mapping(uint256 => address)",
        "numberOfBytes": "32",
        "value": "t_address"
      },
      "t_mapping(t_uint256,t_uint256)": {
        "encoding": "mapping",
        "key": "t_uint256",
        "label": "mapping(uint256 => uint256)",
        "numberOfBytes": "32",
        "value": "t_uint256"
      },
      "t_string_storage": {
        "encoding": "bytes",
        "label": "string",
        "numberOfBytes": "32"
      },
      "t_uint256": {
        "encoding": "inplace",
        "label": "uint256",
        "numberOfBytes": "32"
      },
      "t_uint8": {
        "encoding": "inplace",
        "label": "uint8",
        "numberOfBytes": "1"
      }
    }
  }
}